:0600000000308A00102808
:10000800FF000308F5000408F6000A08F7007E0858
:10001800F8000A128A11A9286E30840072300A1278
:100028008A111B200A128A110A128A1123286400D5
:100038008001840A04060319003404061C280A12E5
:100048008A114C200A128A11831203134E306F0250
:10005800213003196E02031C322833283928203036
:1000680086060030EE000030EF0071183C283D286D
:1000780048288C1D40284128482806150000000003
:10008800000000008C11061128280A128A11102875
:100098000310003003180130F00071100030EE003A
:1000A8000030EF0083160313FF3085000310003083
:1000B800031801308600031083120313003003185D
:1000C8000130860081309F008E30831603139F0015
:1000D80003100030031801309400203083120313FA
:1000E800940083160313871287110F3081005A304A
:1000F80083120313810060308B00831603138C1561
:100108000D30F300FB30F200F20B8828F30B88283F
:100118008D28831203138B170730F3007D30F2000C
:10012800F20B9428F30B9428831203131F15413004
:10013800F300EE30F200F20B9F28F30B9F286400C7
:1001480083120313061606120800831203130B1DED
:10015800AE28AF28DE280B115A3081001F19B528A8
:10016800B628DE287118B928BA28DE2883160313A2
:100178001E08F4007408F0007114831203131E089B
:100188009300000000000C130000000000000000B5
:100198000000000000000000000000000000000057
:1001A80000006E08013EEE006F080318013E003E95
:1001B800EF001F158C1DE128E228EA288C11711C1C
:1001C800E628E728EA287008930071107808FE00EE
:1001D80077088A007608840075088300FF0E7F0E72
:0201E80009000C
:02400E003A3F37
:00000001FF
